:020000040800F2
:1000000020040020A9010008510E00087909000809
:10001000FB0C0008F9070008DB17000800000000CF
:100020000000000000000000000000008D12000829
:10003000FD07000800000000E10E00083914000868
:10004000C3010008C3010008C3010008C301000880
:10005000C3010008C3010008C3010008C301000870
:10006000C3010008C3010008C3010008C301000860
:10007000C3010008C3010008C3010008C301000850
:10008000C3010008C3010008C3010008000000000C
:10009000000000000000000000000000C301000894
:1000A000C3010008C3010008C3010008C301000820
:1000B000C3010008C3010008C3010008C301000810
:1000C000C3010008C3010008C3010008C301000800
:1000D000C3010008ED150008C3010008000000007E
:1000E000C3010008C3010008C301000800000000AC
:1000F000000000000000000000000000C301000834
:1001000000000000C3010008C3010008C30100088B
:1001100000000000000000000000000000000000DF
:10012000C3010008C3010008C3010008C30100089F
:10013000C3010008000000000000000000000000F3
:10014000000000000000000000000000C3010008E3
:10015000C3010008C3010008C3010008C30100086F
:10016000C3010008C30100080000000000000000F7
:10017000000000000000000000000000000000007F
:1001800000000000C30100080000000000000000A3
:10019000C3010008DFF80CD000F00CFB004800475A
:1001A000B92100082004002006488047064800477F
:1001B000FEE7FEE7FEE7FEE7FEE7FEE7FEE7FEE717
:1001C000FEE7FEE73D140008950100082DE9FE4F0B
:1001D000804681EA0300C00F0C46009021F00041E8
:1001E00023F00045B8EB0200A94105D24046214664
:1001F00090461C460B46024623F00040104347D071
:10020000270DC7F30A00C3F30A510290401A019068
:1002100040286BDAC3F3130040F4801B0098924629
:1002200020B10023D2EB030A63EB0B0B0198594674
:10023000C0F14002504600F066F906460D465046B1
:100240005946019A00F06EF910EB08006141002454
:1002500087EA115284EAE7731A4340D0009A62B3E6
:10026000019A012A4FEA075215DC001B61EB0201DB
:100270004FF0004202EA0752CDE90042001C41F56E
:10028000801132462B4600F0A5F903B0BDE8F08F8F
:1002900040462146F9E7001B61EB0201001C41F5D5
:1002A000801300185B412018A2F5001747EB0301EB
:1002B00040EAD570B6196D4111E06D084FEA360677
:1002C00045EAC0754FEA0752001B61EB0201001CB2
:1002D00041F5801149084FEA30000019514132467A
:1002E0002B4603B0BDE8F04F00F065B9009801223D
:1002F00040000023D0EB020263EBE073009821463C
:100300004FEAE074B8EB000061EB0401E9E783F029
:1003100000435BE781F0004158E72DE9F04D81EAA9
:10032000030404F0004B21F0004514464FF0000A8E
:1003300023F0004150EA050220D054EA01021DD00A
:10034000C5F30A570246C5F31303C1F31300C1F303
:100350000A5640F4801543F48013A7EB0608101BDF
:10036000D64608F2FD3873EB050002D308F1010808
:1003700001E092185B41B8F1000F03DA002001465A
:10038000BDE8F08D00204FF48011064684460EE053
:10039000171B73EB050705D3121B63EB050306431D
:1003A0004CEA010C49084FEA300092185B4150EAD0
:1003B0000107EDD152EA030012D082EA040083EA79
:1003C0000501084305D0101BAB4106D201220023D2
:1003D00006E000224FF0004302E06FF001025310EC
:1003E0001AEB06004CEB085110EB0A0041EB0B0135
:1003F000BDE8F04D00F0DFB80EB5C10F80EAE07047
:100400000844CA07002140F233438DE80E000A4633
:100410000B4600F0DFF803B000BD00F0004230F002
:1004200000400AD0C10D01F56071C0F3160042EA28
:100430000151C20840071143704700200146704730
:1004400001F0004330B421F0004150EA010206D02F
:100450000A0DA2F56072C1F31301002A02DC30BC60
:1004600000207047440F44EAC104C100E01830BCCA
:1004700000EBC25000F068B830B50B4601460020D2
:100480002022012409E021FA02F59D4205D303FA56
:1004900002F5491B04FA02F52844151EA2F10102D7
:1004A000F1DC30BD2DE9F05F0546002092469B4609
:1004B00088460646814640241BE02846414647467A
:1004C000224600F089F953465A46C01A914110D38A
:1004D00011461846224600F016F82D1A67EB01085F
:1004E0004F4622460120002100F00DF817EB0009CD
:1004F0004E41201EA4F10104DFDC484631462A4665
:100500004346BDE8F09F202A04DB203A00FA02F1BE
:10051000002070479140C2F1200320FA03F31943F1
:1005200090407047202A06DBCB17203A41FA02F0B0
:1005300043EAE07306E041FA02F3D040C2F1200240
:1005400091400843194670470029A8BF7047401CD6
:10055000490008BF20F00100704710B4B0FA80FCD9
:1005600000FA0CF050EA010404BF10BC704749B116
:10057000CCF1200421FA04F411FA0CF118BF012186
:1005800021430843A3EB0C01CB1D4FEA00614FEA66
:10059000102042BF002010BC704700EBC350104435
:1005A0000029A4BF10BC7047401C490008BF20F0C0
:1005B000010010BC704710B5141E73F1000408DA76
:1005C000401C41F1000192185B411A4301D120F017
:1005D000010010BD2DE9F04D92469B4611B1B1FAD4
:1005E00081F202E0B0FA80F220329046FFF78BFFF2
:1005F00004460F4640EA0A0041EA0B0153465A46B8
:10060000084313D0114653EA010019D0C8F1400243
:10061000504600F0E1F805460E465046594642461F
:10062000FFF771FF084305D0012004E0204639465A
:10063000BDE8F08D0020054346EAE0762C433743C1
:100640000A986305E40AA0EB08000022FD0A44EAC8
:1006500047540A3002D500200146E9E70105101988
:100660006941DDE9084500196941BDE8F04DA2E79F
:100670002DE9FE4F81EA030404F0004421F000411B
:1006800000944FF0000B23F0004350EA01045ED0C9
:1006900052EA03045BD0C3F30A54C1F30A552C4455
:1006A000A4F2F3340194A0FB0254C1F3130141F40A
:1006B0008011C3F3130343F4801301FB024400FBD6
:1006C000034E840A970A44EA815447EA8357A4FBFD
:1006D000076802958D0A05FB07854FEA932C04FBFA
:1006E0000C542705029D4FEA065847EA1637B5EB2A
:1006F00008056EEB070C870E920E47EA811742EA57
:100700008312A7FB0201B6EB0B0164EB00042B0D77
:1007100043EA0C335E1844EB1C50DA465146E7FBC3
:100720000201C5F313044FEA0B3343EA14534FEAB3
:100730000432019C43EA0603A4F10C040294009CD9
:10074000CDE900B4FFF746FF03B0BDE8F08F00200D
:100750000146F9E7C1F30A52C1F3130140F2FF3336
:1007600041F480119A4202DA00200146704740F2BB
:1007700033439A42A2F2334202DC524200F02CB8D8
:10078000FFF7C1BE30B5041E71F1000404DB4FF069
:100790000044404264EB0101141E73F1000405DBC8
:1007A0001C464FF00043524263EB0403994208BFDA
:1007B000904230BD064C074D06E0E06840F0010372
:1007C00094E8070098471034AC42F6D3FFF7E6FCF4
:1007D00098230008B8230008202A04DB203A21FAD5
:1007E00002F00021704721FA02F3D040C2F120024A
:1007F000914008431946704700BFFEE77047F0B5C7
:100800000A4600210023002400BF3DE0012505FA2F
:1008100001F3156805EA03049C4234D105684F00D2
:100820000326BE40B543056015794E00B540066805
:10083000354305601579012D02D01579022D16D1A9
:1008400085684F000326BE40B543856055794E004C
:10085000B540866835438560456801268E40B543BE
:100860004560456896798E40B6B235434560C568A7
:100870004F000326BE40B543C560D5794E00B54054
:10088000C6683543C560491C1029BFD3F0BDF0B51B
:10089000002300244D07ED0E02FA05F3CE1000F1FF
:1008A000200555F826504E07F70E0F26BE40B543DB
:1008B000CF1000F1200646F82750CE1000F1200599
:1008C00055F8265045EA0304CE1000F1200545F8FE
:1008D0002640F0BD01837047014800887047000042
:1008E0000000002010B50221372000F0FDF90021A2
:1008F0006A2000F0F9F97021002000F034F820217E
:10090000012000F030F80021022000F02CF810BD8A
:1009100070B504460D4616462B46324621461E202B
:1009200000F0B5FC70BD1CB50446062269460320E4
:10093000FFF7EEFF9DF801009DF8001000EB01208D
:1009400000B220809DF803009DF8021000EB01200A
:1009500000B260809DF805009DF8041000EB0120B6
:1009600000B2A0801CBD13B5044601AB0122214694
:100970001E2000F0B2FC1CBD00BFFEE7514800681D
:1009800040F480004F4908604E481038006840F03D
:1009900002004C49103908604B48006820F44010B0
:1009A000494908600846006840F400100860081DC6
:1009B000006840F48060091D0860081D006840F46C
:1009C0004010091D0860081D006820F44010091D32
:1009D00008603D48406A20F470613B484162406ACB
:1009E00040F4806138484162006820F0C000364918
:1009F00008600846006840F080000860081D006834
:100A000040F00800091D0860081D006840F0C000A3
:100A1000091D0860081D006820F0C000091D08605D
:100A200029482030006820F47040274920310860B0
:100A30000846006840F4104008602448008820F010
:100A400002002249088021481C30008840F4004000
:100A50001E491C3108800846008860F480400880E8
:100A60001A480830008840F00A0018490831088008
:100A7000081F008840F02A00091F08801348203012
:100A8000008820F03F001149203108800846008886
:100A900040F00D000880081F00886FF30B00091F4D
:100AA00008800846008840F0230008800748008836
:100AB00040F00100054908800846008840F4806045
:100AC000088070474038024000040240005800404F
:100AD000014603480088084100F00100704700000B
:100AE00014580040014603480088084100F0010006
:100AF00070470000185800401CB50121084600F05E
:100B0000F1F94FF4A06000F0E1F901208DF8040044
:100B100000208DF806002020009001208DF80700AD
:100B200003208DF8050069460148FFF768FE1CBDEB
:100B30000000024010B520210148FFF7CBFE10BD98
:100B4000000002401CB50446062269463B2000F026
:100B500089F89DF801009DF8001040EA012000B2DC
:100B600020809DF803009DF8021040EA012000B2A9
:100B700060809DF805009DF8041040EA012000B255
:100B8000A0801CBD1CB5044606226946432000F027
:100B900069F89DF801009DF8001040EA012000B2BC
:100BA00020809DF803009DF8021040EA012000B269
:100BB00060809DF805009DF8041040EA012000B215
:100BC000A0801CBD08B50020009001226946752058
:100BD00000F048F89DF80000682804D0054800F0AF
:100BE000FFFD002008BD9DF8001003A000F0F8FDF7
:100BF0000120F7E73C2300083C3C2D4932432D49B6
:100C00004E464F2D3E3E204D505536303530204912
:100C100044203D2025640D0A0A00000070B5002420
:100C2000002500BF06E0002500E06D1CB5F57A7FC9
:100C3000FBDB641CB4F57A7FF5DB00216B2000F050
:100C400053F80721192000F04FF806211A2000F070
:100C50004BF801211C2000F047F818211B2000F060
:100C600043F870BD70B504460D4616462B46324615
:100C70002146682000F00BFB70BD000030B52DED63
:100C8000068B81B00446022269464120FFF7EAFF45
:100C90009DF801009DF8001040EA012005B22846A9
:100CA000FFF7AAFB41EC1A0B9FED0B0B53EC102B3B
:100CB000FFF733FB41EC190B9FED090B53EC102BA5
:100CC000FFF784FA41EC180BFFF7BAFB206001B084
:100CD000BDEC068B30BD00000000000000407540F8
:100CE000A4703D0AD743424013B5044601AB01222C
:100CF0002146682000F0F1FA1CBD00BFFEE70000AD
:100D000030B58BB004460D460121022000F0FAF800
:100D10000121084600F0E6F8022206211E48FFF7EE
:100D2000B6FD02208DF8280000208DF82A00402012
:100D3000099001208DF82B0003208DF8290009A9C6
:100D40001548FFF75CFD0020ADF82000ADF81A0053
:100D50000795ADF8184006A9104800F005FC602082
:100D6000ADF804000020ADF810000120ADF8060039
:100D70000A20039001A9094800F0ACFB08210748AC
:100D800000F0E6FB0121054800F08CFB012103483F
:100D900000F094FB0BB030BD0000024000040040A6
:100DA00000B587B00121084600F09CF80121102011
:100DB00000F0B8F8072209212348FFF768FD072251
:100DC0000A212148FFF763FD4FF4C060059002201F
:100DD0008DF818008DF8190000208DF81A000120F8
:100DE0008DF81B0005A91848FFF709FD4FF41650B0
:100DF00001900020ADF810000C20ADF80E0000208E
:100E0000ADF80C00ADF80A00ADF8080001A90F48D4
:100E100000F070FC25208DF8000001208DF8030003
:100E200000208DF801008DF80200684600F012F8ED
:100E3000012240F22551054800F037FC012103480A
:100E400000F0F0FB07B000BD0000024000100140C0
:100E50007047000070B5002100230F22C4781CB336
:100E6000174C246804F4E064C4F5E064C4F307217B
:100E7000C1F10404E3B20A4144789C40E1B28478B1
:100E8000144021430C07210E0E4C0578615504785F
:100E900004F01F050124AC4005786D11AD0005F18B
:100EA000E025C5F8004109E0047804F01F0501249D
:100EB000AC40054D0678761145F8264070BD00001F
:100EC0000CED00E000E400E080E100E002490143B5
:100ED000024A1160704700000000FA050CED00E0C6
:100EE0007047000029B1064A12680243044B1A6099
:100EF00004E0034A12688243014B1A607047000005
:100F00003038024029B1064A12680243044B1A6085
:100F100004E0034A12688243014B1A6070470000E4
:100F20004038024029B1064A12680243044B1A6055
:100F300004E0034A12688243014B1A6070470000C4
:100F400044380240F0B5002100220024022500268A
:100F50000223324F3F6807F00C0121B1042905D06C
:100F6000082937D105E02E4F076036E02D4F076086
:100F700033E02A4F3F1F3F68C7F38056274F3F1F7C
:100F80003F6807F03F036EB1264FB7FBF3F7DFF87A
:100F90008CC0ACF1040CDCF800C0CCF3881C07FB5F
:100FA0000CF40CE01E4FB7FBF3F7DFF870C0ACF1A8
:100FB000040CDCF800C0CCF3881C07FB0CF4174FC2
:100FC0003F1F3F68C7F301477F1C7D00B4FBF5F767
:100FD000076002E0124F076000BF00BF0F4F3F687D
:100FE00007F0F0010909104F7A5C0768D7404760A5
:100FF0000A4F3F6807F4E051890A0B4F7A5C476853
:10100000D7408760054F3F6807F46041490B064FA2
:101010007A5C4768D740C760F0BD000008380240DE
:101020000024F40000127A00020000202DE9F841AB
:1010300004460E461546002200279046654800905B
:1010400000BF0120FFF74EFD0028FAD1624800885A
:1010500040F480706049088000BF0020FFF738FD31
:101060000028FAD060005C491031088000BF0120E0
:10107000FFF72EFD0028FAD057481430B0F8008052
:10108000001DB0F8008000BF0720FFF721FD0028F9
:10109000FAD051481030068000BF0720FFF718FD36
:1010A0000028FAD04C48008840F480704A490880F3
:1010B00000BF0020FFF70CFD0028FAD0012000EB54
:1010C000440045491031088000BF0120FFF700FDB2
:1010D0000028FAD0012D1CD13F48008820F4806000
:1010E0003D4908803C481430B0F80080001DB0F83D
:1010F00000800846008840F40070088000BF062089
:10110000FFF7E6FC0028FAD033481030008818704A
:1011100048E031481430B0F80080001DB0F800807D
:1011200014E000BF0620FFF7D3FC0028FAD02A48BD
:101130001030008800F0FF0C1046521C03F800C06D
:101140002548008840F4806023490880A81E90420A
:10115000E7D800BF0620FFF7BBFC0028FAD01E48E6
:101160001030008800F0FF0C1046521C03F800C03D
:101170001948008820F480601749088008460088D4
:1011800040F40070088000BF0620FFF7A1FC002893
:10119000FAD011481030008800F0FF0C1046521CA5
:1011A00003F800C00C481430008820F004000A49FD
:1011B0001431088000BF0120FFF794FC0028FAD109
:1011C0000548008840F48060034908803846BDE83F
:1011D000F8810000B01E0400005800402DE9F841DD
:1011E00004460D4616460027B846002225480090C2
:1011F00000BF0120FFF776FC0028FAD122480088C2
:1012000040F480702049088000BF0020FFF760FC98
:101210000028FAD060001C491031088000BF01206E
:10122000FFF756FC0028FAD017481430B0F80080B9
:10123000001DB0F8008000BF0720FFF749FC002820
:10124000FAD0114810300580002210E000BF0720BE
:10125000FFF73EFC0028FAD0985C0B49103108805B
:1012600000BF0220FFF734FC0028FAD0521CB24223
:10127000ECD30548008840F40070034908803846E4
:10128000BDE8F881B01E04000058004070472DE909
:10129000F04706460F46904699464FF0000A002454
:1012A000FFF71AFB054600BF00244B46424639466D
:1012B0003046FFF7BBFE04466CB165B15046411C99
:1012C00001F0FF0A042802DD2046BDE8F087284629
:1012D00000F01EFFE8E72046F7E72DE9F047064655
:1012E0000F46904699464FF0000A0024FFF7F4FAA3
:1012F000054600BF00244B46424639463046FFF7BC
:101300006DFF04466CB165B15046411C01F0FF0A07
:10131000042802DD2046BDE8F087284600F0F8FEEC
:10132000E8E72046F7E700000CB5002001900090A8
:101330003348006840F480303149086000BF3048CD
:10134000006800F4003000900198401C0190009863
:1013500018B90198B0F5A04FF1D12948006800F400
:10136000003010B10120009001E0002000900098B2
:10137000012844D122484030006840F08050204984
:10138000403108601F48006840F440401D49086033
:101390001B48083000681A49083108600846006890
:1013A00008600846006840F4805008601648091F2D
:1013B0000860081F006840F08070091F086000BFC7
:1013C0000F48006800F000700028F9D040F2027069
:1013D0000E4908600A480830006820F003000849F8
:1013E000083108600846006840F00200086000BF4D
:1013F00003480830006800F00C000828F8D10CBD44
:10140000003802400070004004154007003C0240D4
:10141000042808D14FF0E021096941F004014FF0A0
:10142000E022116107E04FF0E021096921F0040199
:101430004FF0E022116170477047000010B5154869
:10144000006840F47000134908601348006840F0D9
:1014500001001149086000200F49083108600E485A
:1014600000680E4908400C4908600D48091D0860D5
:10147000081F006820F48020091F0860002006492A
:101480000C310860FFF750FF4FF0006001498039D0
:10149000086010BD88ED00E000380240FFFFF6FE56
:1014A0001030002421B1028842F08002028004E062
:1014B00002884FF67F731A400280704721B102887C
:1014C00042F00102028004E002884FF6FE731A40E7
:1014D0000280704770B5002400220023058C4FF66F
:1014E000FE7635400584028C8388048B4FF68F7519
:1014F0002C40B51E2C400D882C43751E2A408D892A
:101500002A434D882A43104DA84202D00F4DA842CD
:1015100013D14FF6F7752A40CD892A434FF6FB7554
:101520002A408D882A434FF6FF652B404FF6FF5522
:101530002B400D8A2B434D8A2B43838004838D6877
:101540004563028470BD00000000014000040140BA
:101550000A460021018B4FF6F773194011430183AE
:10156000704741637047000000220288184B984280
:101570000ED0184B98420BD0B0F1804F08D0164BCC
:10158000984205D0154B984202D0154B984204D191
:101590004FF68F731A404B881A43124B984207D06C
:1015A000114B984204D04FF6FF431A400B891A435F
:1015B00002804B68C3620B880385054B984202D0BA
:1015C000044B984201D18B7A0386012383827047B2
:1015D00000000140000401400004004000080040F9
:1015E000000C0040001000400014004010B540F214
:1015F00025510B4800F02FF800B910BD084800F045
:10160000E3F8044600BF4021054800F017F8002821
:10161000F9D02146024800F0DCF800BFEDE70000F9
:101620000010014021B1828942F40052828104E01D
:1016300082894DF6FF731A4082817047024600206E
:10164000B1F5007F00D100BF13880B400BB1012022
:1016500000E00020704770B50246002400230025FA
:10166000002040F66A16B14200D100BFC1F3421516
:1016700001F01F03012606FA03F3012D02D196891A
:10168000334006E0022D02D1168A334001E0968AEB
:1016900033400C12012606FA04F41688344013B1C4
:1016A0000CB1012000E0002070BDF0B5034600241D
:1016B00000260025002040F66A17B94200D100BF7D
:1016C0001846C1F3421401F01F06012707FA06F578
:1016D000012C01D10C3004E0022C01D1103000E0CB
:1016E00014301AB107682F43076002E00768AF4360
:1016F0000760F0BD2DE9FF4705460E460024A146D0
:1017000000BFA046B08900B100BF2C8A24F4405429
:10171000F08804432C82AC8941F20C608443B08889
:1017200031890843718908430443AC81AC8A24F4AD
:101730004074B0890443AC826846FFF703FC20483C
:10174000854202D01F48854202D1DDF80C9001E0AD
:10175000DDF80890A88900F4004040B109EBC90009
:1017600000EB091031684900B0FBF1F707E009EB25
:10177000C90000EB091031688900B0FBF1F7642063
:10178000B7FBF0F004012009642101FB1078A8895F
:1017900000F4004040B1322000EBC800B0FBF1F093
:1017A00000F00700044308E0322000EB0810642139
:1017B000B0FBF1F000F00F0004432C81BDE8FF877F
:1017C000001001400014014001468888C0F3080061
:1017D0007047C1F308028280704700BFFEE7000037
:1017E0000FB4054B10B503A9044A029800F0DAF8CB
:1017F00010BC5DF814FB00009521000818000020C3
:1018000002E008C8121F08C1002AFAD170477047C9
:10181000002001E001C1121F002AFBD17047000027
:101820002DE9FF5F82B00021DDE90430020DDDF813
:1018300040B0034318D044F61050A2F2FF324243A6
:101840001514119801281FD0A5EB0B00401C5FEA6E
:10185000000A4FF000064E4FDFF83891B046504670
:1018600015D5CAF1000413E0119801244AA30128F8
:1018700001D16FEA0B010298119AC0E90031C0E969
:10188000024206B0BDE8F09FCBF10000DFE704465E
:101890000021404A491842EB0450CDE9001012E003
:1018A000E00707D032463B4640464946FEF7E0FE99
:1018B0008046894632463B4610461946FEF7D8FE1A
:1018C00006460F466410002CEAD1DDE90401DDE98B
:1018D0000023BAF1000F06DAFEF7CAFE42464B4675
:1018E000FEF7C6FE05E0FEF718FD42464B46FEF742
:1018F00014FD04460E460022284BFEF743FF03D892
:101900004FF0FF30014607E00022254B20463146CC
:10191000FEF75CFCFEF71EFF102409E0002C0ADB3A
:101920000A220023FEF7BEFD039B30321A55641EC7
:1019300050EA0102F2D1641C039AC4F11103144469
:10194000119A012A03D0012208430DD10AE008436D
:1019500004D000204FF0110B119072E7A3EB0B05A0
:101960006D1E0DE05B4504DD4FF0000205F1010541
:1019700004E003DA4FF00002A5F10105002AECD0E3
:1019800002981199C0E90231C0E9004579E70000E9
:10199000000014400000F03F300000000000F04361
:1019A0000000E03F2DE9FF4F95B09B468946064673
:1019B00000250FE2252877D100242746F84A012187
:1019C000059400E0044316F8013F203B01FA03F0C0
:1019D0001042F7D130782A2811D06FF02F033078D9
:1019E000A0F13002092A16D8059A44F0020402EB4D
:1019F000820203EB42021044761C0590EFE759F88F
:101A0000042B0592002A03DA504244F40054059056
:101A100044F00204761C30782E2816D116F8010FF7
:101A200044F004042A280DD06FF02F023078A0F182
:101A30003003092B09D807EB870302EB4303C718D0
:101A4000761CF3E759F8047B761C30786C280FD0AD
:101A500006DC4C2817D068280DD06A2814D104E081
:101A6000742810D07A280FD10DE044F400140AE055
:101A700044F4801401E044F440147278824202D1AC
:101A800004F58014761C761C307866280BD013DCA5
:101A9000582877D009DC002875D04528F6D046288C
:101AA000F4D047281AD19DE118E0632835D0642886
:101AB00079D0652812D195E1702873D008DC6728A9
:101AC000F1D069286FD06E280DD06F2806D1B5E00F
:101AD00073282CD0752875D0782874D05A46179959
:101AE00090476D1C75E1C4F30250022809D0032809
:101AF0000DD0D9F8001004280DD00D6009F10409AB
:101B000067E1D9F80010EA17C1E90052F6E7D9F801
:101B100000100D80F2E70D70F0E719F8041B8DF846
:101B2000001000208DF80100EA46012003E059F87A
:101B300004AB4FF0FF3061074FF0000102D40DE01D
:101B400008F101018846B9420FDA8045F8DB1AF83E
:101B500008100029F4D108E008F10101884681420B
:101B6000FADB1AF808100029F6D105985B46A0EBBD
:101B7000080721463846179A00F094FA284400EBEB
:101B8000080507E04DE029E10DE01AF8010B5A467F
:101B900017999047B8F10108F7D25B4621463846BD
:101BA000179A13E142E00A220092C4F302524FF066
:101BB000000A022A08D059F804CB032A4FEAEC7134
:101BC0000AD00DE029E02AE009F1070121F007021F
:101BD000F2E802C1914609E00FFA8CFC4FEAEC7181
:101BE000042A03D14FFA8CFC4FEAEC71002907DA82
:101BF0000A460021DCF1000C61EB02012D2202E01B
:101C0000220504D52B228DF80420012203E0E207EF
:101C100001D02022F7E7904659E00A2102E0102285
:101C20000DE010214FF0000A00910BE010224FF060
:101C3000000A44F004040827009203E008224FF051
:101C4000000A0092C4F30252022A05D059F804CBCC
:101C50000021032A08D009E009F1070121F0070259
:101C6000F2E802C1914605E01FFA8CFC042A01D17A
:101C70000CF0FF0C4FF00008220728D5702806D082
:101C8000009B83F0100353EA0A0305D00EE04022C4
:101C90008DF80420012208E05CEA010206D030221F
:101CA0008DF804208DF8050002229046009B83F0F9
:101CB000080353EA0A030AD15CEA010201D1620770
:101CC00005D530228DF804204FF001087F1E5828DA
:101CD00004D034A003900EA802900DE036A0F9E7DE
:101CE00053466046009AFEF7DDFB84460398825C0B
:101CF0000298401E029002705CEA0100F0D1029846
:101D000006A9081A00F1200A600702D524F48034DD
:101D100000E00127574502DDA7EB0A0000E00020A4
:101D200000EB0A01009005984144401A0590E00339
:101D300006D45B462146179A059800F0B3F905448E
:101D4000002706E001A85A46C05D179990476D1C10
:101D50007F1C4745F6DBE0030CD55B462146179A0E
:101D6000059800F09FF9054404E030205A46179981
:101D700090476D1C0099481E00900029F5DC08E092
:101D8000029802995A460078491C02911799904787
:101D90006D1CBAF10001AAF1010AF1DC65E1000055
:101DA0000928010030313233343536373839616231
:101DB00063646566000000003031323334353637F5
:101DC00038394142434445460000000000F058F9CC
:101DD0000544761C307800287FF4ECAD19B0284615
:101DE000BDE8F08F620700D4062709F1070222F050
:101DF000070CFCE80223E14603F000485FEA080C08
:101E000002D00FF2702C0DE05FEA045C02D50FF2F5
:101E1000682C07E05FEAC47C02D00FF2602C01E07E
:101E2000AFF2700C4FF0FF3823F00043CDF850C0F4
:101E300065280CD006DC452809D046281DD0472847
:101E40003DD13DE0662818D067287ED138E00021DA
:101E5000112F01DB112000E0781CCDE9000106A95B
:101E60000EA8FFF7DDFCDDE90F010E9A03910021BA
:101E7000009207F1010A04914DE04FF000400097F5
:101E8000CDE9011006A90EA8FFF7CAFCDDE90F0293
:101E900003920E9B11990022DDF80CA0009304928E
:101EA00011B9791C00EB010AB7EB0A0004D4C0F1A8
:101EB000FF3007F1010A0490AAEB0700019044E00B
:101EC000012F00DA01270021112F01DD112000E090
:101ED0003846CDE9000106A90EA8FFF7A1FCDDE90F
:101EE0000F010E9A0391002104910092BA46210736
:101EF0000CD40399514500DA8A46BAF1010F05DD89
:101F0000009AAAF10101515C302908D0B84202DAE6
:101F100010F1040F06DA0121CDE9011015E0AAF154
:101F20000101E9E7002805DC049901440491AAEBCA
:101F3000000102E0411C514500DD8A460499401A27
:101F4000401C01904FF000400290200704D40198FB
:101F5000504501DBCDF8048000208DF84F00029839
:101F60000DF14F07B0F1004F25D02B200E900298B5
:101F70004FF0020800280CDA404202902D200E900B
:101F800007E00A210298FEF777FA3031029007F84D
:101F9000011DB8F10001A8F10108F2DC0298002847
:101FA000EFD1791E0E980870307800F0200040F0D4
:101FB000450007F8020D12A8C01B00F1070814988D
:101FC000007800B1012000EB0A01019801EBE071FB
:101FD00005984144401A401E0590E00306D45B4634
:101FE0002146179A059800F05DF80544149800788A
:101FF00018B15A46179990476D1CE00324D55B46EB
:102000002146179A059800F04DF805441CE0049805
:10201000002807DBDDE90301884203DD0098405C0E
:10202000179901E0179930205A469047049805F116
:102030000105401C04900198401E019004D12E20FF
:102040005A46179990476D1CBAF10001AAF1010A8E
:10205000DDDC05E017F8010B5A46179990476D1C17
:10206000B8F10001A8F10108F4DC5B462146179A9B
:102070000598ABE62D0000002B00000020000000BA
:102080002DE9F041044600251E461746880404D475
:1020900005E039462020B0476D1C641EF9D528465E
:1020A000BDE8F0812DE9F041044600251E4690462A
:1020B000C80301D5302700E02027880404D505E0B7
:1020C00041463846B0476D1C641EF9D52846BDE828
:1020D000F081000010B504466FF00400FFF798F996
:1020E000E11704EB5171C1F3C701074A11701046A3
:1020F000007800EB4001C1EBC0104FF6FF7101EA20
:10210000C0000249088010BD120000201400002009
:1021100070B504464FF4077094FBF0F0C6B24FF46C
:10212000077094FBF0F100FB114085B205E04FF41D
:10213000077000F009F8701EC6B2002EF7D115B175
:10214000284600F001F870BD0146114A12884A4342
:102150004FF0E0235A6100229A611A46126942F058
:1021600001021A6100BF4FF0E022106900F0010285
:102170001AB100F48032002AF5D04FF0E022126943
:1021800022F001024FF0E0231A6100229A617047A9
:102190001400002070B504460D4600BF40210548DC
:1021A000FFF74CFA0028F9D0A1B20248FFF711FB63
:1021B000204670BD001001402DED028B8CB05420E4
:1021C000FFF788FFFEF798FCFEF7B4FC4FF4A06021
:1021D000FEF77CFEFEF7E4FD30A0FFF701FB01A84F
:1021E000FEF7B0FE0498009032A001A90EC9FFF7D7
:1021F000F7FAFEF7C3FBFEF7E5FCFEF70FFDFEF76F
:1022000071FB40F2CF7140F24730FEF779FD4FF499
:10221000FA60FFF77DFF64213548FFF7A2F94FF41C
:10222000FA60FFF775FF4FF4FA60FFF771FF34E0D3
:102230000AA8FEF787FCBDF92C30BDF92A20BDF9AC
:1022400028102CA0FFF7CCFA08A8FEF79BFCBDF9DC
:102250002430BDF92220BDF920102AA0FFF7C0FAD2
:1022600005A8FEF70BFD0598FEF7D7F841EC180B13
:1022700053EC182B28A0FFF7B3FA06A8FEF753FB80
:10228000BDF91C30BDF91A20BDF9181026A0FFF7C2
:10229000A7FA4FF47A70FFF73BFFC9E70D0A5553D1
:1022A00041525431204634303152452054657374C4
:1022B0000D0A0000436C6F636B496E666F3A2053E2
:1022C0005953434C4B203D2025642048434C4B2020
:1022D0003D2025642050434C4B31203D2025642077
:1022E00050434C4B32203D2025640D0A0000000075
:1022F000000400404163656C3A2025386425386449
:1023000025386400202020204779726F202538640A
:1023100025386425386400002020202054656D7025
:102320002025382E32660000202020204D616720B5
:102330002538642538642538640D0A003C3C2D4955
:1023400032432D4552524F522D3E3E204D50553670
:10235000303530206465637465637465642065722C
:10236000726F72210D0ABCECB2E2B2BBB5BD4D502A
:102370005536303530C4A3BFE9A3ACC7EBBCECB2D3
:10238000E9C4A3BFE9D3EBBFAAB7A2B0E5B5C4BD0A
:10239000D3CFDF0A00000000B823000800000020AF
:1023A0001C00000000180008D42300081C000020B6
:1023B00004040000101800083700000000000102AB
:1023C00003040102030406070809000000000000DE
:0423D0000000000009
:040000050800019559
:00000001FF
