:020000040800F2
:1000000070060020350200083D0200083F0200088B
:1000100041020008430200084502000800000000F9
:10002000000000000000000000000000470200087F
:1000300049020008000000004B0200084D020008C1
:100040004F0200084F0200084F0200084F0200084C
:100050004F0200084F0200084F0200084F0200083C
:100060004F0200084F0200084F0200084F0200082C
:100070004F0200084F0200084F0200084F0200081C
:100080004F0200084F0200084F0200080000000065
:100090000000000000000000000000004F02000807
:1000A0004F0200084F0200084F0200084F020008EC
:1000B0004F0200084F0200084F0200084F020008DC
:1000C0004F0200084F0200084F0200084F020008CC
:1000D0004F0200084F0200084F0200080000000015
:1000E0004F0200084F0200084F0200080000000005
:1000F0000000000000000000000000004F020008A7
:10010000000000004F0200084F0200084F020008E4
:1001100000000000000000000000000000000000DF
:100120004F0200084F0200084F0200084F0200086B
:100130004F02000800000000000000000000000066
:100140000000000000000000000000004F02000856
:100150004F0200084F0200084F0200084F0200083B
:100160004F0200084F0200080000000000000000DD
:10017000000000000000000000000000000000007F
:10018000000000004F020008000000000000000016
:100190004F02000800F002F800F03CF80AA090E8D6
:1001A000000C82448344AAF10107DA4501D100F032
:1001B00031F8AFF2090EBAE80F0013F0010F18BFC3
:1001C000FB1A43F001031847E40500000406000091
:1001D000103A24BF78C878C1FAD8520724BF30C873
:1001E00030C144BF04680C60704700000023002445
:1001F00000250026103A28BF78C1FBD8520728BF37
:1002000030C148BF0B6070471FB500F0C9FA1FBD71
:1002100010B510BD00F06EF81146FFF7F5FF00F0C5
:100220002FFA00F0A0F803B4FFF7F2FF03BC00F0D0
:100230001BFA00000948804709480047FEE7FEE72F
:10024000FEE7FEE7FEE7FEE7FEE7FEE7FEE7FEE786
:1002500004480549054A064B704700008D04000814
:100260009501000870000020700600207002002038
:1002700070020020704700000FB4044910B503AAB3
:10028000029800F009F810BC5DF814FB0000002093
:100290007047704770477047074B70B50D467B44F9
:1002A00000F011F80446284600F020F810B14FF095
:1002B000FF3070BD204670BDCB03000001694A1CB1
:1002C00002610878704700B58FB0CDE90131002197
:1002D000059105497944CDE903101146684600F0BF
:1002E0002EF80FB000BD0000E5FFFFFF007B00F01F
:1002F00080007047754600F03FF8AE46050069463D
:10030000534620F00700854618B020B5FFF7A0FF40
:10031000BDE820404FF000064FF000074FF0000806
:100320004FF0000B21F00701AC46ACE8C009ACE887
:10033000C009ACE8C009ACE8C0098D4670472DE99A
:10034000F04106460024D6E90170F5688046304643
:1003500003E04146B847641C3046A8470028F8D15E
:100360002046BDE8F08110B50446AFF3008020467A
:10037000BDE81040FFF757BF004870470C00002051
:100380002DE9F04103460C46184600F049F80020DC
:100390004FF0010C03270CFA00F521682940A9420F
:1003A0002BD11E68420007FA02F18E431E602679A7
:1003B000D3F80080964046EA08061E60DE688E4349
:1003C000DE60E679D3F80C80964046EA0806DE60E7
:1003D0002679012E01D0022E0FD19E688E439E6099
:1003E000617991409A68114399605968A9435960AD
:1003F0005968A279824011435960401C1028CAD321
:10040000BDE8F08104490860091D0860091D086005
:100410000249086070470000340400404008004072
:10042000144A1549904204D1086840F00100086060
:100430007047124A904204D1086840F002000860F8
:1004400070470F4A904204D1086840F004000860E9
:1004500070470C4A904204D1086840F008000860D8
:100460007047094A9042FBD1086840F010000860CC
:100470007047000000000240303802400004024093
:1004800000080240000C02400010024002480168CF
:1004900041F470010160704788ED00E010B5284A12
:1004A000136843F002031360254A103A136843F0BF
:1004B00003031360234A136843F420431360224B61
:1004C0001C6844F00A041C60136A43F0085313626A
:1004D0001D4A2032136843F0220313601B4A13683D
:1004E00043F064031360136843F4C8431360121DA0
:1004F000136846F2600423431360136840F2044417
:1005000023431360121D136841F211142343136037
:100510000E4A10321160111D08600C494FF47A70B8
:100520001C310860091D0860091D0860091D08606C
:1005300006481838016841F00101016010BD000053
:10054000403802400000024000040240180400400D
:1005500010B54FF4FA60FFF755FF0AA0FFF78CFEC5
:100560000120094C401CA042FCDD08A0FFF784FEDE
:100570004FF47A70FFF746FF0120401CA042FCDDDB
:1005800010BD0000310A0000002D3101320A0000C8
:100590002DE9F0411248016841F010010160016845
:1005A00041F4804101600F4C401520600126E67146
:1005B000022060710025A57120710B4F214638463D
:1005C000FFF7DEFEB00220602571E6712146384655
:1005D000FFF7D6FE786A40F4EE607862BDE8F081FD
:1005E00044380240040000200000024070B5044678
:1005F0001B48424300EE102A0801F8EE400A00EEC4
:10060000100AB8EE401A80EE810AFCEEC00A10EE25
:10061000900A80B200EE900AF8EE600A30EE600AAE
:10062000F3EE000A20EE200ABCEEC00A10EE101A0B
:1006300001EB001085B20B48844201D1FFF7A8FFFF
:100640000020E06020616061A0682843A060E0684D
:1006500040F00800E060E06840F40050E06070BDE9
:1006600040420F00001001407047000003490A6833
:100670005206FCD5C2B24A6070470000001001402B
:1006800000F036F82A224FF4E1311048FFF7AEFFB0
:100690000FA0FFF7F1FD292144F61F60FFF7FEFED2
:1006A00001200F49401C8842FCDD0EA0FFF7E4FD4D
:1006B000FFF74EFF0D4C4FF4E1652846FFF7A2FE11
:1006C0000121491CA142FCDDF7E7000000100140B8
:1006D0005541525420696E697465640A0000000037
:1006E000404B4C00556E6C6F636B0A00809698000F
:1006F00030B52A4A106840F48030106000204FF472
:100700007A7400E0401C1168890301D4A042F9DB2F
:1007100022490831086820F080000860086820F449
:10072000E0500860086840F480500860086820F4D1
:100730006040086008680860081F036843F480038D
:100740000360036823F03F030360036843F008037A
:100750000360036847F6C075AB430360036843F466
:10076000A8530360036823F4403303600368036005
:10077000106840F080701060002000E0401C13689A
:100780009B0101D4A042F9DB086820F00300086057
:10079000086840F00200086030BD000000380240E8
:1007A0004FF04070E1EE100A70470000CC070008DF
:1007B000000000200C000000D0010008D80700084D
:1007C0000C00002064060000EC010008000000009E
:0807D000000000000000000021
:0400000508000235B8
:00000001FF
