:020000040800F2
:10000000880600203D02000845020008470200085B
:10001000490200084B0200084D02000800000000E1
:100020000000000000000000000000004F02000877
:1000300051020008000000005302000855020008A9
:10004000570200085702000857020008570200082C
:10005000570200085702000857020008570200081C
:10006000570200085702000857020008570200080C
:1000700057020008570200085702000857020008FC
:10008000570200085702000857020008000000004D
:1000900000000000000000000000000057020008FF
:1000A00057020008570200085702000857020008CC
:1000B0007D06000857020008570200085702000892
:1000C00057020008570200085702000857020008AC
:1000D00057020008570200085702000800000000FD
:1000E00057020008570200085702000800000000ED
:1000F000000000000000000000000000570200089F
:1001000000000000570200085702000857020008CC
:1001100000000000000000000000000000000000DF
:10012000570200085702000857020008570200084B
:10013000570200080000000000000000000000005E
:10014000000000000000000000000000570200084E
:10015000570200085702000857020008570200081B
:1001600057020008570200080000000000000000CD
:10017000000000000000000000000000000000007F
:10018000000000005702000800000000000000000E
:100190005702000800F002F800F041F80AA090E8C9
:1001A000000C82448344AAF10107DA4501D100F032
:1001B00036F8AFF2090EBAE80F0013F0010F18BFBE
:1001C000FB1A43F001031847280800004808000004
:1001D000103A24BF78C878C1FAD8520724BF30C873
:1001E00030C144BF04680C60704700000023002445
:1001F00000250026103A28BF78C1FBD8520728BF37
:1002000030C148BF0B607047642900F0798000203E
:1002100070471FB500F0E6FB1FBD10B510BD00F024
:1002200037F91146FFF7F5FF00F036FB00F055F9FE
:1002300003B4FFF7F2FF03BC00F022FB094880473C
:1002400009480047FEE7FEE7FEE7FEE7FEE7FEE7B8
:10025000FEE7FEE7FEE7FEE704480549054A064BD0
:10026000704700006D060008950100088800002016
:1002700088060020880200208802002070470000C5
:100280000FB4044910B503AA029800F0D3F810BCCB
:100290005DF814FB000000202DE9F0410E460446F5
:1002A000002020622046E168884730B3252805D029
:1002B000D4E901219047206A401CF2E7E16820461A
:1002C00000278847050018D0A5F14100192802D859
:1002D00020354FF400673246294620462760FFF755
:1002E00093FF40B1012804D0F61D26F0070608361A
:1002F000D8E7361DD6E72846DAE7206ABDE8F08160
:100300002DE9F0410646002410687529314616A5EE
:1003100010D0AFF30080002802DA404213A507E0B6
:1003200031688A0701D512A502E0490704D511A555
:10033000012401E0AFF3008000210A2206F1240726
:1003400009E0B0FBF2FCB0FBF2F302FB1C00303022
:1003500078541846491C0028F3D123462A463046D3
:10036000BDE8F04100F00CB8000000002D000000D6
:100370002B00000020000000704770477047704756
:100380002DE9F0470D4699469246044600F12408AF
:100390000168880604D5E06921F01001216000E0C1
:1003A0000120A84201DD471B00E00027A1697A195E
:1003B00002EB0900081AA0612078C00602D420468A
:1003C000AFF30080002608E0D4E901211AF8060006
:1003D0009047206A401C761C20624E45F4DB207852
:1003E000C0060AD52046AFF3008006E0D4E901211B
:1003F00030209047206A401C2062381EA7F1010778
:10040000F4DC07E0D4E9012118F805009047206AE0
:10041000401C2062281EA5F10105F3DC2046AFF345
:1004200000802078000602D50220BDE8F087012078
:10043000FBE70000074B70B50D467B4400F011F858
:100440000446284600F020F810B14FF0FF3070BD90
:10045000204670BD4704000001694A1C026108780B
:10046000704700B58FB0CDE90131002105910549F4
:100470007944CDE9031011466846FFF70DFF0FB030
:1004800000BD0000E5FFFFFF007B00F0800070472B
:10049000754600F02BF8AE4605006946534620F03D
:1004A0000700854618B020B5FFF7D6FEBDE820400E
:1004B0004FF000064FF000074FF000084FF0000B20
:1004C00021F00701AC46ACE8C009ACE8C009ACE8D3
:1004D000C009ACE8C0098D46704710B50446AFF3BB
:1004E00000802046BDE81040FFF7A2BE00487047DC
:1004F000240000202DE9F04103460C46184600F088
:1005000049F800204FF0010C03270CFA00F5216890
:100510002940A9422BD11E68420007FA02F18E43FE
:100520001E602679D3F80080964046EA08061E60D1
:10053000DE688E43DE60E679D3F80C80964046EAAA
:100540000806DE602679012E01D0022E0FD19E68AA
:100550008E439E60617991409A6811439960596811
:10056000A94359605968A279824011435960401CDF
:100570001028CAD3BDE8F08104490860091D08604D
:10058000091D0860024908607047000034040040FB
:1005900040080040144A1549904204D1086840F0D0
:1005A000010008607047124A904204D1086840F088
:1005B0000200086070470F4A904204D1086840F07A
:1005C0000400086070470C4A904204D1086840F06B
:1005D000080008607047094A9042FBD1086840F063
:1005E00010000860704700000000024030380240F0
:1005F0000004024000080240000C024000100240CB
:100600001748016841F0010101601648016841F492
:1006100000610160016A41F48011016210481030EC
:10062000016841F0010101600006816941F00101AA
:10063000816129218162C16841F00201C16044F6F3
:100640001F61C16208490A6842F080520A60016A6B
:1006500041F001010162016841F001010160704750
:10066000303802400000024000E100E0024801682A
:1006700041F470010160704788ED00E010B54FF063
:100680008041486B41F65834084A0023A0420BD8F9
:100690001078092808D04C6B401CC0B21070044A76
:1006A00022F810404B6210BD1370FBE70C000020D5
:1006B0001000002010B5284A136843F002031360AD
:1006C000254A103A136843F003031360234A136862
:1006D00043F420431360224B1C6844F00A041C605E
:1006E000136A43F0085313621D4A2032136843F023
:1006F000220313601B4A136843F0640313601368FA
:1007000043F4C8431360121D136846F26004234388
:100710001360136840F2044423431360121D1368EE
:1007200041F21114234313600E4A10321160111D5F
:1007300008600C494FF47A701C310860091D08608C
:10074000091D0860091D086006481838016841F055
:100750000101016010BD000040380240000002406D
:10076000000402401804004010B54FF4FA60FFF78F
:1007700003FF0AA0FFF784FD0120094C401CA042A2
:10078000FCDD08A0FFF77CFD4FF47A70FFF7F4FE64
:100790000120401CA042FCDD10BD0000310A000019
:1007A000002D3101320A00002DE9F04112480168A4
:1007B00041F010010160016841F4804101600F4C7B
:1007C000401520600126E671022060710025A571A8
:1007D00020710B4F21463846FFF78CFEB002206097
:1007E0002571E67121463846FFF784FE786A40F4A9
:1007F000EE607862BDE8F0814438024004000020D9
:100800000000024070B504461B48424300EE102A27
:100810000801F8EE400A00EE100AB8EE401A80EE29
:10082000810AFCEEC00A10EE900A80B200EE900A37
:10083000F8EE600A30EE600AF3EE000A20EE200ABD
:10084000BCEEC00A10EE101A01EB001085B20B4886
:10085000844201D1FFF7A8FF0020E06020616061C1
:10086000A0682843A060E06840F00800E060E0680D
:1008700040F40050E06070BD40420F0000100140A5
:100880007047000003490A685206FCD5C2B24A60AC
:10089000704700000010014000F04CF82A224FF48D
:1008A000E1311648FFF7AEFF15A0FFF7E9FC29215B
:1008B00044F61F60FFF7FEFE01201549401C8842E8
:1008C000FCDD14A0FFF7DCFCFFF74EFFFFF798FEFE
:1008D000124E134D4FF4E1670124214636F81420DF
:1008E00010A0FFF7CDFC641C082CF6DD3846FFF79E
:1008F00043FE0121491CA942FCDDEDE70010014047
:100900005541525420696E697465640A0000000004
:10091000404B4C00556E6C6F636B0A00100000205A
:100920008096980025642020202020202020256407
:100930000A00000030B52A4A106840F48030106088
:1009400000204FF47A7400E0401C1168890301D440
:10095000A042F9DB22490831086820F080000860D5
:10096000086820F4E0500860086840F4805008608F
:10097000086820F46040086008680860081F036881
:1009800043F480030360036823F03F0303600368BC
:1009900043F008030360036847F6C075AB43036088
:1009A000036843F4A8530360036823F440330360EF
:1009B00003680360106840F080701060002000E061
:1009C000401C13689B0101D4A042F9DB086820F0A9
:1009D00003000860086840F00200086030BD0000B5
:1009E000003802404FF04070E1EE100A70470000FE
:1009F000100A00080000002010000000D0010008CC
:100A0000200A00081000002078060000EC01000811
:100A100000000000000000000000000000000000D6
:040000050800023DB0
:00000001FF
