:020000040800F2
:10000000A8060020550200085D0200085F020008F3
:100010006102000863020008650200080000000099
:10002000000000000000000000000000670200085F
:1000300069020008000000006B0200086D02000861
:100040006F0200086F0200086F0200086F020008CC
:100050006F0200086F0200086F0200086F020008BC
:100060006F0200086F0200086F0200086F020008AC
:100070006F0200086F0200086F0200086F0200089C
:100080006F0200086F0200086F0200080000000005
:100090000000000000000000000000006F020008E7
:1000A0006F0200086F0200086F0200086F0200086C
:1000B000AD1900086F0200086F0200086F02000807
:1000C0006F0200086F0200086F0200086F0200084C
:1000D0006F0200086F0200086F02000800000000B5
:1000E0006F0200086F0200086F02000800000000A5
:1000F0000000000000000000000000006F02000887
:10010000000000006F0200086F0200086F02000884
:1001100000000000000000000000000000000000DF
:100120006F0200086F0200086F0200086F020008EB
:100130006F02000800000000000000000000000046
:100140000000000000000000000000006F02000836
:100150006F0200086F0200086F0200086F020008BB
:100160006F0200086F02000800000000000000009D
:10017000000000000000000000000000000000007F
:10018000000000006F0200080000000000000000F6
:100190006F02000800F002F800F04CF80AA090E8A6
:1001A000000C82448344AAF10107DA4501D100F032
:1001B00041F8AFF2090EBAE80F0013F0010F18BFB3
:1001C000FB1A43F001031847BC230000DC230000A6
:1001D000103A24BF78C878C1FAD8520724BF30C873
:1001E00030C144BF04680C60704700000023002445
:1001F00000250026103A28BF78C1FBD8520728BF37
:1002000030C148BF0B607047662902F06E816429D7
:1002100000F08280002070471FB502F05CF900F00A
:1002200035FB04000020002101F0DCFEE0601FBD72
:1002300010B510BD00F046FC1146FFF7EDFF01F0D0
:1002400075FD00F064FC03B4FFF7F2FF03BC01F09E
:100250005BFD00000948804709480047FEE7FEE7CC
:10026000FEE7FEE7FEE7FEE7FEE7FEE7FEE7FEE766
:1002700004480549054A064B7047000099190008D3
:1002800095010008A8000020A8060020A802002070
:10029000A8020020704700000FB4044910B503AA5B
:1002A000029800F0E1FA10BC5DF814FB0000002099
:1002B0002DE9F0410E460446002020622046E16808
:1002C000884730B3252805D0D4E901219047206A1A
:1002D000401CF2E7E168204600278847050018D057
:1002E000A5F14100192802D820354FF400673246A5
:1002F000294620462760FFF787FF40B1012804D038
:10030000F61D26F007060836D8E7361DD6E728463C
:10031000DAE7206ABDE8F0812DE9F04106460024C5
:1003200010687529314616A510D0AFF3008000285B
:1003300002DA404213A507E031688A0701D512A509
:1003400002E0490704D511A5012401E0AFF30080C4
:1003500000210A2206F1240709E0B0FBF2FCB0FB01
:10036000F2F302FB1C00303078541846491C002878
:10037000F3D123462A463046BDE8F04100F00CB8E0
:10038000000000002D0000002B00000020000000F5
:1003900070477047704770472DE9F0470D46994602
:1003A0009246044600F124080168880604D5E069F5
:1003B00021F01001216000E00120A84201DD471B6F
:1003C00000E00027A1697A1902EB0900081AA06170
:1003D0002078C00602D42046AFF30080002608E053
:1003E000D4E901211AF806009047206A401C761CC7
:1003F00020624E45F4DB2078C0060AD52046AFF3D4
:10040000008006E0D4E9012130209047206A401C9A
:100410002062381EA7F10107F4DC07E0D4E90121CE
:1004200018F805009047206A401C2062281EA5F19C
:100430000105F3DC2046AFF300802078000602D5EA
:100440000220BDE8F0870120FBE770472DE9FF4F50
:100450000C461E464FF0FF378BB0D2E90001DDF8A5
:1004600060800A908A46C1F30A5505B93D460021CD
:1004700008464FF00000BAF1000F00F4400005DA22
:1004800000EB80004FF4400101EA50004FEA905920
:10049000B9F1010F00DDB9460A9850EA4A000ED0C2
:1004A00044F61050A5F2FF3545432F14B8F1000F64
:1004B0001ED07542291E1EDDC9F100021CE0B8F1F4
:1004C000010F4FF0000001D0302103E0F24305E0BE
:1004D0002154401CB042FBDB304600220021215455
:1004E0000B99C1F80880C1E900200FB0BDE8F08F7A
:1004F000BD1B6D1CDEE74A4600DA694206A800F023
:1005000067FA06AB93E8070003AB83E807005046A1
:100510000A9900F045FB8DE80700A0F500501F3850
:1005200000900398002D0ADD42F21F014A4608445C
:10053000002303A90390684600F0AEFD09E0A0F592
:1005400000504A461F38002303A90390684600F074
:10055000B8FD8DE807000004000C03D04FF0FF3019
:10056000410800E01046B8F1000F03D000220092CD
:1005700015461EE0751E05D400F08CF93032625528
:100580006D1EF9D5B3460122084302D000227F1C1C
:1005900004E02078302801D100227F1E002A09972C
:1005A00084D01DE0112D07DA00F074F93032625565
:1005B0006D1C50EA0102F5D1084302D00098C8B181
:1005C0000EE00021681E05E0235C625C6354225447
:1005D000401E491C8142F7DBAB46A81B401E099018
:1005E000002004F80B000B98099AC0F80880C0E9B5
:1005F000002B7AE711264FF0000857E72DE9F04F5E
:1006000088460446D21D22F0070191B0D1E90001CD
:10061000CDE90A0101F060FB02460B98C00F01D042
:100620002D2007E02068810701D52B2002E0202142
:1006300001EAC000032A099001D0072A05DB03461E
:100640004146204600F084F90BE12078800601D570
:10065000E06900E00620B8F1650F814606D0B8F1E8
:10066000660F18D0B8F1670F70D131E00020B9F1F2
:10067000110F009001DB112301E009F101030AAA27
:1006800001A90CA8FFF7E2FEDDE90C70002609F1D4
:100690000105834647E001204B4600904FF000479C
:1006A0000AAA01A90CA8FFF7D1FEDDE90DB00C994B
:1006B0005D46002610B909F101000D18B9EB0500DF
:1006C00003D4C0F1FF3609F10105A5EB09002BE0C9
:1006D000B9F1010F01DA4FF001090020B9F1110F52
:1006E0000090484601DD112300E003460AAA01A953
:1006F0000CA8FFF7ABFEDDE90C704D4600268346E3
:10070000207800070AD4AB4500DA5D4601A8012D28
:1007100004DD411911F8011C302907D04F4502DAD8
:1007200017F1040F04DA012082460FE06D1EEEE798
:10073000002F02DCED1B3E4403E0781CA84200DDE4
:100740007D1CB81B00F1010A4FF00047207800071C
:1007500003D4AA4501DB4FF0FF3A0021B7F1004F67
:100760000DF143088DF8431024D002202B23002FD5
:1007700001DA7F422D230A21021EA0F1010000DCD4
:100780005FB197FBF1FC97FBF1F201FB1C7C174674
:100790000CF1300C08F801CDEEE7A8F10100037070
:1007A0002188090501D5452100E06521A0F1010856
:1007B00000F8011C09980FA9A1EB0807FF1D00B163
:1007C0000120411901EBEA70A1693844081A401E62
:1007D000A0612078C00602D42046AFF300800998BB
:1007E00028B1D4E901219047206A401C206220787A
:1007F000C00622D52046AFF300801EE0002E04DBA9
:10080000B34502DD01A8805D00E03020D4E901217C
:100810009047206A401C2062761CAAF101005FEA22
:10082000000A0AD100F032F8C0680168405CD4E9DF
:1008300001219047206A401C2062281EA5F1010575
:10084000DCDC07E0D4E9012118F8010B9047206AAD
:10085000401C2062381EA7F10107F3DC2046AFF3ED
:100860000080032011B041E6074B70B50D467B4474
:1008700000F05BF80446284600F01CF910B14FF078
:10088000FF3070BD204670BD9F14000000487047C7
:100890006800002030B5B0F10A024FEA900E71F105
:1008A00000034EEA817EB0EB0E0061EB91014FEA4E
:1008B000101E4EEA017E10EB0E0041EB11114FEAC3
:1008C000102E4EEA016E10EB0E0041EB11214FEAA3
:1008D000104E4EEA014E10EB0E0041EB1141401854
:1008E00041F100014FEAD00040EA41704FEAD101E6
:1008F00010EB80054FEA810444EA907444EB010454
:100900006D1944EB0404521BA3414FF0000348BF90
:100910000A3200D530BD401C41F1000130BD00005D
:1009200001694A1C02610878704700B58FB0CDE9B3
:1009300001310021059105497944CDE903101146A3
:100940006846FFF7B5FC0FB000BD0000E5FFFFFFF4
:100950002DE9F0411F46044603260168072A01F4E9
:10096000006004DB08B116A505E016A503E008B198
:1009700015A500E015A521F010002060A069C01E9B
:10098000A0610FB1401EA0612046AFF300804FB1BF
:10099000D4E9012138469047206A401C2062C01CDF
:1009A000206206E0206AFAE7D4E9012115F8010B7C
:1009B0009047761EF8D22046AFF30080BDE8F08164
:1009C0004E414E006E616E00494E4600696E6600F3
:1009D0002DE9F047814616468AB0354878440DC85F
:1009E0008DE80D0032487844801C03AC0DC884E8C3
:1009F0000D0041F69B300844372190FBF1F290FB4B
:100A0000F1F5A5F1800501FB12041B3C02D56442FF
:100A1000012000E00020DFF898A080460027FA447B
:100A2000AAF1BE0A0EE0E0070AD03246684607EB9C
:100A3000470101230AEB810100F043FB8DE8070029
:100A400064107F1C002CEED1194F7F44AE3F19E09B
:100A5000E80715D007EB04100DF1180A90E80E0016
:100A60008AE80E00C068F04201D198190890324619
:100A7000012306A903A800F024FB03AB83E80700C9
:100A80006D10641C002DE3D14FF00103324669461E
:100A9000B8F1000F03A802D000F0FEFA01E000F068
:100AA00010FBC9E90001C9F808200AB0BDE8F087C9
:100AB0008C1B0000007B00F08000704700487047EE
:100AC000480000207546FFF7F9FFAE46050069466D
:100AD000534620F00700854618B020B5FFF7C8FB45
:100AE000BDE820404FF000064FF000074FF000082F
:100AF0004FF0000B21F00701AC46ACE8C009ACE8B0
:100B0000C009ACE8C009ACE8C0098D46704710B513
:100B10000446AFF300802046BDE81040FFF793BBCA
:100B20004FF0013C50F8042B51F8043B9A4221D17C
:100B3000A2EB0C03934313EACC1317D150F8042B08
:100B400051F8043B9A4215D1A2EB0C03934313EAEC
:100B5000CC130BD150F8042B51F8043B9A4209D125
:100B6000A2EB0C03934313EACC13DBD04FF000004D
:100B7000704700BFD01A01BAB1FA81F101F0180133
:100B800022FA01F0CB40C1F12001DBB2C0B2C01AA1
:100B90002CFA01F3D11A914311EAC311E6D170473F
:100BA0005FEA400C08BF91F0000F4FEA8C234FEA38
:100BB000C12243EA51514FEA1C5018BF00F5F040E2
:100BC0004FEA300018BF41F000415FEA6C5C00F072
:100BD0002980BCF1FF3F08BF40F080407047130CF4
:100BE00006BF12044FF0100C4FF0000C130E04BFA0
:100BF00012020CF1080C130F04BF12010CF1040CCB
:100C0000930F04BF92000CF1020CD30F04BF5200EB
:100C10000CF1010C11464FF00002A0F11F00A0EBF7
:100C20000C00704711F0004F08BF704731F00041D1
:100C30003FF4D5AF0B0C06BF09044FF0100C4FF07A
:100C4000000C0B0E04BF09020CF1080C0B0F04BFC3
:100C500009010CF1040C8B0F04BF89000CF1020C8C
:100C6000CB0F04BF49000CF1010CCCF12003A0EB29
:100C70000C0022FA03F302FA0CF241EA030100F13C
:100C80000100704720F07F4C80EA030023F07F478B
:100C9000ACEB070303F57C5300F0004003F1FF03C6
:100CA0002DE980494FEA154B09B44FEA144325EA70
:100CB0000B4E24EA03480FF2042606EB13274908DB
:100CC0003E785FEA320203FB0667C7F5000707FBC1
:100CD00006F64FEA54374FEAD64606F1020607FBFE
:100CE000066CCCF1005C4FEA1C472CEA074C07FB72
:100CF00006F40CFB06F504EB15464FEA961634BFD6
:100D000000204FF000404FEAD13706FB07FC4FEAC6
:100D10001C4C0CFB0BF7D21B03FB0CF761EB070120
:100D20000CFB0EF7B0EB074072EB17420CFB08F719
:100D300034BFA2EB0742B2EB074261EB17414FEA27
:100D40000C444FEA910706FB07FC4FEA1C4C0CFBD6
:100D50000BF7B0EBC74072EB573203FB0CF734BF15
:100D6000A2EBC742B2EBC74261EB57310CFB0EF767
:100D7000B0EBC70072EB57720CFB08F734BFA2EB65
:100D8000C702B2EBC70261EB5771039F4FEA816163
:100D900041EA921104EBCC044FEAD1374FEA826268
:100DA00006FB07FC42EA90124FEA80604FEA1C4CB7
:100DB0000CFB0BF7D21B03FB0CF761EB07010CFBE1
:100DC0000EF7B0EB074072EB17420CFB08F734BF8D
:100DD000A2EB0742B2EB074261EB17414FEA8C5599
:100DE0004FEA910704EB9C2406FB07FC4FEA1C4CDE
:100DF0000CFB0BF7B0EBC74072EB573203FB0CF761
:100E000034BFA2EBC742B2EBC74261EB57310CFBD8
:100E10000EF7B0EBC70072EB57720CFB08F734BF4C
:100E2000A2EBC702B2EBC70261EB577115EB4C2581
:100E30004FEA816141EA92114FEA82624FEAD1376B
:100E400042EA901206FB07FC44F100044FEA80607E
:100E50004FEA1C4C0CFB0BF7D21B03FB0CF761EBAE
:100E600007010CFB0EF7B0EB074072EB17420CFBCF
:100E700008F734BFA2EB0742B2EB074261EB174120
:100E800015EB1C154FEA813141EA92414FEA82325B
:100E900042EA90424FEA80304FEA0C7644F1000477
:100EA00048EA03434EEA0B484FF0000EB2EB080C41
:100EB00071EB030724BF624639464EEB0E0E4FF02E
:100EC000000B0018524149414BEB0B0BB2EB080CE5
:100ED00071EB03077BF1000B24BF624639464EEBF2
:100EE0000E0E4FF0000B0018524149414BEB0B0B1B
:100EF000B2EB080C71EB03077BF1000B24BF6246D9
:100F000039464EEB0E0E51EA020718BF46F00106B5
:100F100016EB0E7655F1000254F1000103D5BDE841
:100F20008901BDE80088BDE88901BDE80048B6191F
:100F3000524141EB0101A3F10103704780807F7EA4
:100F40007D7C7B7A7978777676757473727171703F
:100F50006F6E6E6D6C6C6B6A6A69686867666665F1
:100F60006464636362616160605F5F5E5E5D5D5C7F
:100F70005C5B5B5A5A5959585857575656555555F0
:100F80005454535352525251515050504F4F4F4E50
:100F90004E4D4D4D4C4C4C4B4B4B4A4A4A4949499E
:100FA00048484847474747464646454545444444E0
:100FB000444343434342424242414141002B9C4609
:100FC00030D477002BD01CB54FEA370703B44FF06D
:100FD00010004FF01001BAF1000F06D0BCF1000F65
:100FE000DCBF40F0080040F008014FF000000FBCEB
:100FF000BDE810400BF1010BBBF1010F08BF5FEA28
:10100000170722BF12F1010211F101014FF0004157
:1010100043F1000300F0004043EA00007047F9D3B9
:101020005708D0E746EA064613F1400F4FEA164646
:101030001FDD13F1200FDFBF16430A4600212033C6
:101040005B42BED0C3F1200746EA064602FA07F724
:101050004FEA164646EA0706C3F1200722FA03F2D2
:1010600001FA07F721FA03F14FF0000342EA070201
:10107000A7E746EA020646EA06464FEA164646EA69
:101080000106BCBF46EA0646360C4FF000034FF09F
:1010900000024FF0000194E72DE9804C9A469346F8
:1010A00070B491E8380007C831EA400C48BF34EA10
:1010B000430C03D5FFF7E6FDFFF780FFF0BCBDE86A
:1010C000008C2DE9804C9A46934670B491E8380024
:1010D00007C810F0804F08BF13F0804F03D100F015
:1010E00005F8FFF76BFFF0BCBDE8008C20F07F47F0
:1010F00080EA030023F07F4C07EB0C03A3F57C533D
:1011000000F00040A3F1FE0392F0000F00F0B38066
:1011100095F0000F00F077802DE901494FEA11406A
:101120004FEA144621EA004800FB06FC24EA064781
:1011300008FB06F607FB08F800FB07F718EB064864
:101140004CEB164C4FEA124B18EB07484FEA15468A
:101150004CEB174022EA0B4E0BFB06FC25EA064738
:101160000EFB06F607FB0EFE0BFB07F71EEB064E0B
:101170004CEB164C4FF000061EEB074E4CEB174B9A
:1011800018EB0B0840F1000018EB0E0B58EB0008B1
:1011900040F100008F1A4FF000013CBFC943661BAD
:1011A00014BFB5EB040C00213CBFC943F61B4FEA4A
:1011B00017444EEA8E0E27EA04454FEA1C4704FB0B
:1011C00007622CEA074C05FB07F70CFB05F604FB4E
:1011D0000CFC16EB074642EB174216EB0C4642EBB3
:1011E0001C421BEB060658EB0202414146EA9E06F2
:1011F00001D5BDE80189B619524141EB0101A3F1C6
:101200000103BDE801894FEA14454FEA114724EA7A
:10121000054621EA074C05FB07F406FB07F70CFB24
:1012200006F105FB0CFC11EB074144EB17444FEAB8
:10123000124711EB0C4144EB1C4422EA074C05FB1E
:1012400007F206FB07F70CFB06F605FB0CFC16EB9A
:10125000074642EB174216EB0C4642EB1C456A1858
:1012600054F1000148BF7047B619524141EB0101EA
:10127000A3F10103704795F0000F37D04FEA1142F8
:101280004FEA144721EA024624EA074C02FB07F121
:1012900006FB07F70CFB06F402FB0CFC14EB0744FF
:1012A00041EB17414FEA154714EB0C4441EB1C414D
:1012B00025EA074C02FB07F506FB07F70CFB06F6D1
:1012C00002FB0CFC16EB074645EB174516EB0C46EC
:1012D00045EB1C42121951F1000148BF7047B61985
:1012E000524141EB0101A3F1010370474FEA14455C
:1012F0004FEA114724EA054621EA074C05FB07F1AE
:1013000006FB07F70CFB06F24FF0000605FB0CFC92
:1013100012EB074241EB174112EB0C4251EB1C411F
:1013200048BF7047921841EB0101A3F101037047D8
:10133000F0B503460D46184600F0AAFA0024002630
:10134000002700BF3CE0012000FA04F6286800EA0C
:101350000607B74233D118686200032191408843E1
:101360001860287961008840196808431860D868B7
:101370006200032191408843D860E8796100884089
:10138000D9680843D8602879012802D02879022832
:1013900015D198686200032191408843986068796C
:1013A0006100884099680843986059680120A0400E
:1013B000814359605968A879A04001435960641C71
:1013C000102CC0D3F0BD00001CB51448006840F0DC
:1013D0000200124908604FF48160009002208DF8ED
:1013E000040001208DF8060002208DF80500012080
:1013F0008DF8070069460A48FFF79AFF0848203031
:10140000006840F41040064920310860081D00685B
:1014100040F48060091D08601CBD000030380240A7
:101420000004024010B5016100BF436903F00203EC
:10143000002BFAD0436984692343DAB210BD00005F
:1014400010B50446204600F037F81A48844201D10E
:10145000FFF7BAFF206840F400402060206820F4C5
:1014600000402060206820F001002060606840F0AB
:101470002A006060A06840F00A00A060E06920F0E7
:101480003F00E061E06940F40040E061E06940F065
:101490002300E061206A20F03F0020620D202062DE
:1014A000206840F001002060206840F480602060E7
:1014B00010BD0000005800400E49884206D10E4978
:1014C000096841F400110C4A116012E00B4988428E
:1014D00006D10949096841F48001074A116008E012
:1014E0000749884205D10449096841F40001024ACC
:1014F00011607047005400404038024000580040DE
:10150000005C0040F0B50C461946012B1CD104616B
:1015100000BF466906F00206002EFAD0066826F4DF
:1015200080660660466987693E43F5B2066846F400
:101530000076066000BF466906F04006002EFAD02D
:1015400006695F1AD65537E0046100BF466906F0A8
:101550000206002EFAD0466987693E43F5B20DE0D7
:1015600000BF466906F04006002EFAD006695F1AF1
:10157000D655066846F480660660491E0229EFDCEF
:1015800000BF466906F04006002EFAD006695F1AD1
:10159000D655066826F480660660066846F400762E
:1015A0000660491E00BF466906F04006002EFAD0CC
:1015B00006695F1AD65500BFF0BD00BF816901F012
:1015C00002010029FAD1016841F4806101600168DB
:1015D00041F48071016000BF416901F001010029FF
:1015E000FAD07047016841F400710160704700BF94
:1015F000426902F08002002AFAD0016100BF42690C
:1016000002F00402002AFAD0704738B501236A4676
:101610007521D02000F0F0F89DF80000682817D15F
:10162000002422466B21D02000F00CF9072422462A
:101630001921D02000F006F9002422461C21D020D8
:1016400000F000F900BF22461B21D02000F0FAF87C
:1016500038BD000000B52DED048B83B0062301AA30
:101660003B21D02000F0C8F89DF805009DF804103B
:1016700040EA0120254908809DF807009DF80610E2
:1016800040EA0120224908809DF809009DF80810D1
:1016900040EA01201F4908801C48008800F042FEF3
:1016A00041EC190B9FED1C0B53EC102B00F0E2FCEE
:1016B00041EC180B00F0ACFC194908601448008894
:1016C00000F030FE41EC190B9FED130B53EC102B87
:1016D00000F0D0FC41EC180B00F09AFC11490860B6
:1016E0000C48008800F01EFE41EC190B9FED0A0B20
:1016F00053EC102B00F0BEFC41EC180B00F088FC02
:101700000949086003B0BDEC048B00BD0C0000204B
:101710000E00002010000020000000000000D0405B
:10172000180000201C000020200000201CB506230B
:101730006A464321D02000F05FF89DF801009DF833
:10174000001040EA0120174908809DF803009DF829
:10175000021040EA0120144908809DF805009DF818
:10176000041040EA0120114908800E48008800EE6C
:10177000100AB8EE400A0E4880ED000A0A480088B8
:1017800000EE100AB8EE400A0A4880ED000A08464A
:10179000008800EE100AB8EE400A074880ED000A03
:1017A0001CBD00000C0000200E00002010000020D6
:1017B000180000201C0000202000002008B5022393
:1017C0006A464121D02000F017F89DF801009DF8ED
:1017D000001040EA0120064908800846008800EE13
:1017E000100AB8EE400A034880ED000A08BD000068
:1017F0000C000020180000202DE9F04104460D46A1
:1018000016461F460E48FFF7D8FE21460C48FFF744
:1018100009FE29460A48FFF7EAFE0948FFF7E2FEFB
:101820000748FFF7CAFE601CC1B23B463246044877
:10183000FFF768FE0248FFF7D5FEBDE8F081000023
:101840000058004070B504460E4615460948FFF79B
:10185000B4FE21460748FFF7E5FD31460548FFF78E
:10186000C6FE29460348FFF7C2FE0248FFF7BAFE4C
:1018700070BD00000058004004490860091D086060
:10188000091D0860091D086070470000340400400D
:101890001849884206D11849096841F00101164AE1
:1018A000116026E01549884206D11349096841F0C4
:1018B0000201114A11601CE01149884206D10E490B
:1018C000096841F004010C4A116012E00D49884298
:1018D00006D10949096841F00801074A116008E08A
:1018E0000949884205D10449096841F01001024ABA
:1018F000116070470000024030380240000402408E
:1019000000080240000C0240001002401F4800681E
:1019100040F001001D4908601D48006840F4006067
:101920001B4908600846006A40F4801008621748A6
:101930001030006840F001001449103108600806BA
:10194000806940F0010009068861292088628007CB
:10195000C06840F00200C86044F61F60C8620D48CD
:10196000006840F080504FF0E021C1F800014FF0D6
:101970008040006A40F001004FF080410862084654
:10198000006840F0010008607047000030380240F5
:101990000000024000E100E00348006840F47000ED
:1019A000014908607047000088ED00E04FF080407A
:1019B000406B41F65831884203D80D480078092819
:1019C00003D100200A4908700CE04FF08040406BC2
:1019D00081B207480078401CC0B2054A1070054A21
:1019E00022F8101000204FF080414862704700003C
:1019F0003100002034000020384A126842F0020210
:101A0000364B1A60354A103A126842F00302334BE3
:101A1000103B1A60324A126842F42042304B1A607E
:101A2000304A126842F00A022E4B1A602C4A126A9F
:101A300042F008522A4B1A622A4A2032126842F0B7
:101A40002202284B20331A60274A126842F06802AB
:101A5000254B1A601A46126842F4D0421A601A1DC9
:101A6000126846F260031A431F4B1B1D1A601A4688
:101A7000126840F608031A431B4B1B1D1A601A1DFF
:101A8000126841F211131A43174B08331A60164AB1
:101A900010321160121D1060134A121F126842F0BA
:101AA0000102114B1B1F1A604FF4FA620E4B1C33DC
:101AB0001A601B1D1A601B1D1A601B1D1A60012273
:101AC00000E0521C094B9A42FBDD074A183A1268A3
:101AD00042F00102044B183B1A6070474038024044
:101AE000000002400004024018040040002D3101B3
:101AF00010B54FF4FA60FFF7BFFE12A0FEF7CCFB63
:101B0000012000E0401C10498842FBDD0FA0FEF7D9
:101B1000C3FB4FF47A70FFF7AFFE012000E0401CDA
:101B200009498842FBDD40F24C40FFF7A5FE012049
:101B300000E0401C06498842FBDD4FF47A70FFF755
:101B40009BFE10BD310A000080C3C901320A0000AB
:101B50008096980010B51548006840F010001349B1
:101B600008600846006840F4804008604815104945
:101B700008600120C871022048710020887102208D
:101B800008710C48FFF7D4FB4FF4806008490860E7
:101B9000002008710120C8710648FFF7C9FB0548FD
:101BA000406A40F4EE600349486210BD4438024088
:101BB000040000200000024010B51648006840F004
:101BC0002000144908600846006840F4804008601E
:101BD0004020114908600120C8710220487100208E
:101BE0008871022008710D48FFF7A2FB80200A4986
:101BF0000860002008710120C8710848FFF798FBB1
:101C000006482030006840F0084004492031086050
:101C100010BD0000443802400400002000080240CB
:101C20002DE9F0412DED028B04460E46174623495F
:101C300007FB01F000EE100AF8EE400A300100EE5A
:101C4000100AB8EE400A80EE801AB0EE418ABCEE6F
:101C5000C80A10EE100A85B200EE105AB8EE400A1B
:101C600038EE400AF3EE000A20EE200ABCEEC00A6D
:101C700010EE100A1FFA80F808EB051085B2104824
:101C8000844202D1FFF766FF04E00E48844201D18E
:101C9000FFF792FF0020E06020616061A0682843A8
:101CA000A060E06840F00800E060E06840F40050A8
:101CB000E060BDEC028BBDE8F081000040420F0007
:101CC000001001400014014000BF026802F08002D1
:101CD000002AFAD04160704703B40198410000988F
:101CE00050EAC12018BF04204A0D18BF40F001007F
:101CF00040F2FF72B2EB515F08BF40F002000128D2
:101D000008BF052002B07047014600BF70470000C1
:101D100000BF054A126802F04002002AF9D0C2B2A0
:101D2000014B1B1D1A607047001401402DED068BFE
:101D300084B000F0E5F82A224FF416514E48FFF720
:101D40006FFF4EA0FEF7A8FA5048FFF779FB50A0AE
:101D5000FEF7A2FA292144F61F60FFF74DFEFFF7B8
:101D6000C7FE4EA0FEF798FAFFF7D0FD50A0FEF791
:101D700093FAFFF74AFC52A0FEF78EFA63213E4821
:101D8000FFF7A2FF76E0FFF765FC5148006800F01E
:101D900031FB41EC180B4F48006800F02BFB41EC85
:101DA000190B4D48006800F025FB41EC1A0B8DED36
:101DB000028B8DED009B53EC1A2B48A0FEF76CFABA
:101DC000FFF7B4FC4248006800F014FB41EC180B2C
:101DD0004048006800F00EFB41EC190B3E480068DB
:101DE00000F008FB41EC1A0B8DED028B8DED009B92
:101DF00053EC1A2B39A0FEF74FFAFFF7DFFC3648F9
:101E0000006800F0F7FA41EC180B53EC182B36A0E1
:101E1000FEF742FA012407E0344830F81420214646
:101E200033A0FEF739FA641C082CF5DD2F48C08971
:101E3000B0F5966F07DD2D48C08920B14FF47A7058
:101E4000FFF71AFD16E02948808838B127488088B6
:101E500040F6B831081AB0F5FA6F04DD4FF47A7025
:101E6000FFF70AFD06E02149898840F6B832501A8A
:101E7000FFF702FD87E7000000140140554152546E
:101E800020696E697465640A000000000058004013
:101E900049324320696E697465640A00556E6C6F3F
:101EA000636B207375636365737366756C0A0000FA
:101EB00052455620696E69746564210A000000006D
:101EC0004D50553630353020696E697465640A00AE
:101ED000200000201C00002018000020256620257E
:101EE000662025660A00000025660A0034000020EE
:101EF0002564202020202020202025640A000000C6
:101F00003749096841F48031354A1160002000E00A
:101F1000401C3349096801F4003111B9B0F57A7FEA
:101F2000F6DB2F490831096821F080012C4A08327C
:101F300011601146096821F4E051116011460968E9
:101F400041F4805111601146096821F4604111602B
:101F5000114609681160111F096841F48001121FC0
:101F600011601146096821F03F01116011460968AE
:101F700041F0080111601146096847F6C0729143AB
:101F8000174A121D11601146096841F4A8511160E9
:101F90001146096821F44031116011460968116049
:101FA000111F096841F08071121F1160002000E0CC
:101FB000401C0B49096801F0007111B9B0F57A7F36
:101FC000F6DB07490831096821F00301044A0832A9
:101FD00011601146096841F002011160704700006C
:101FE0000038024010B500290AD00878002807D030
:101FF00005487844FEF794FD002801D0002010BD6C
:102000000248784410BD0000B2050000AA05000097
:1020100021F00042A2F16052B2F5801F01F00043AE
:1020200028BFD2F17F6C0BD95FEA001C43EAC202E1
:1020300042EB507018BF704728BF20F00100704776
:10204000B2F5801FBCBF184670474FEA410C1CF523
:10205000001F02D2084600F043BA70B500F075F9CF
:1020600000000089FFF7F6BF4FF00040A0F58000A8
:10207000704700002DE9C04130B4DFF8A0C23CEA4F
:10208000111418BF3CEA131400F0EC8081EA030538
:102090001CEA111444EAD57418BF1CEA131500F0A9
:1020A000C780A4EB05044FF0004545EAC12145EA8D
:1020B000C32341EA505143EA525304F17F749942D9
:1020C00004F500344FEAC0204FEAC22208BF904214
:1020D00000F09C804FEA13650FF24016765D4FEAE0
:1020E000134506FB05F7C7F1807706FB07F74FEAB4
:1020F000D737A7FB03687642C8F58038A7FB06CE22
:1021000038BFA8F1010807FB08E64FF0000EA6FB58
:10211000028CE6FB03CEDCF1000CCEF1004E38BFA2
:10212000AEF1010EA6FB0C584FF000074FF0000572
:10213000E6FB0E87A1FB08C6A0FB07CE16EB0E063A
:1021400045F10005E1FB076515F1E04E7EBFA4F502
:1021500080345FEA46066D4116F1800745F10005BF
:102160004FEA17274FEA066647EA0567A6F1DE46FB
:10217000B6F1805F4FEA15251FD9384624F0010CCF
:1021800005EBC471BCF1FE6F01EB0C1102D8F0BC81
:10219000BDE8008124425CBF01F5801E9EEAC47F39
:1021A00002D4F0BCBDE80081244238D4F0BCA1F1D7
:1021B000C041BDE8004100F016B94FEAD22242EA20
:1021C00043524FEAD323A7FB02864FEAD02040EACE
:1021D000415007FB03661EEA0E0F4FEAD12105FBB3
:1021E000026658BFA6EB0056B6EB00564FEA520EF9
:1021F0004EEAC37E18EB0E0E56EB530EBDD518EB10
:1022000002085E417F1C55F10005B6E74FF48015CA
:102210004FF000074FF000064FF00008ADE7F0BCAC
:102220004FF0000001F1C04101F00041BDE8008124
:1022300011EA0C1F0CEA131500D00CE013EA0C1F76
:1022400000F025804FF00000F0BC81EA030101F0AE
:102250000041BDE80081F0BCBDE8004181EA030116
:1022600000F0C1B8F0BCBDE8004170B500F06DF8F9
:10227000097EFC3E00F007B881EA03014FF0000040
:1022800001F00041704781EA030100F0ACB8F0BCF6
:10229000BDE800414FF0000021497047FFFDFBF908
:1022A000F7F5F4F2F0EEEDEBE9E8E6E4E3E1E0DE89
:1022B000DDDBDAD8D7D5D4D3D1D0CFCDCCCBCAC8FB
:1022C000C7C6C5C4C2C1C0BFBEBDBCBBBAB9B8B722
:1022D000B6B5B4B3B2B1B0AFAEADACABAAA9A8A815
:1022E000A7A6A5A4A3A3A2A1A09F9F9E9D9C9C9BE3
:1022F0009A9999989797969595949393929191908E
:102300008F8F8E8E8D8C8C8B8B8A8989888887871E
:102310008685858484838382828181800000FF0793
:102320000000F87FB0FA80F310FA03F10AD0C3F18D
:102330001D0303F580634FEA41504FEA035202EB5D
:10234000D12170474FF0000070470EF1020E2EF0C1
:10235000030E5EF8046B364205D4012A43EB0305F5
:1023600015F5001F12D8012841EB010C1CF5001FC8
:102370000CD80ED14FEAD17C15F5001F0CEB4C0C9C
:102380000CF1020C08BF4CEBD37C04E04FF0080CBE
:1023900001E04FEAD37C0CEB4C0526FA05F606F07B
:1023A0000706B6F1040C06D20EEB860CBDE87040B1
:1023B0004CF0010C6047DFE80CF0090B02024FF013
:1023C00000414FF00000A1F5002170BD19461046F4
:1023D000012851EB010418BFD4F5001484BF00207C
:1023E00001F0004170BD0808A0F500114FEA31016D
:1023F0007047000043004FEAD30C4FEA3C0C4340C7
:102400001FBF40070CF1605113F0FE4F70471CF0E6
:10241000006F03D100200CF0004170470CF0004326
:1024200043EA507010B540EACC0000F00EF800BF4F
:10243000000000924FEA0001FFF7D5BF4FF00041C6
:102440004FF00000A1F5002170470EF1020E2EF0B2
:10245000030E5EF8044B244204D44FEA4102B2F169
:102460007F4F11D84FEA4003B3F17F4F0CD80ED104
:102470004FEAD07CB2F17F4F0CEB4C0C0CF1020C0C
:1024800008BF4CEBD17C04E04FF0080C01E04FEAB0
:10249000D17C0CEB4C0324FA03F404F00704B4F1F0
:1024A000040C06D20EEB840CBDE810404CF0010C7D
:1024B0006047DFE80CF0070802024FF00040A0F58B
:1024C000800010BD0846420018BFD2F1807288BF5C
:1024D00000F0004010BD4FF04070E1EE100A704770
:1024E000FF2141EAD050C0057047FEF787B80000D1
:1024F00002400000000000A00000000005400000B5
:10250000000000C8000000000C4000000000409CDB
:1025100000000000194000000020BCBE00000000C8
:1025200034400000BFC91B8E00000004B54000000D
:10253000504BCFD06607E2CF010000006C41000095
:102540003E8251AADFEEA73401000000D94200000C
:10255000DCB5A0E23A301F97FFFFFFFFB445000053
:10256000FD25A0C8E9A3C14FFFFFFFFFFF3F00000B
:102570000000008000000000FF3F0000000000801D
:1025800000000000C025000800000020340000000A
:10259000D0010008F4250008340000207406000073
:1025A000EC0100081C00000043000000F8FFFFFFE2
:1025B0000C0000000E0000000F0000002E000000C4
:1025C000000000000000000000000000000000000B
:1025D00000000000000000000000000000000000FB
:1025E00000000000000000000000000000000000EB
:0425F00000000000E7
:040000050800025598
:00000001FF
